:020000040800F2
:10000000884800204D010008891B0008311A0008AB
:1000100000000000000000000000000000000000E0
:10002000000000000000000000000000591D000852
:1000300000000000000000000B010008631D000824
:100040005F0100085F010008AD1C00085F010008A7
:100050005F0100085F0100085F0100085F01000800
:100060005F0100085F0100085F0100085F010008F0
:100070005F0100085F0100084D2200085F010008D1
:100080005F0100085F0100085F0100080000000038
:100090005F0100085F0100085F0100085F010008C0
:1000A0005F0100085F0100085F0100085F010008B0
:1000B0005F0100085F0100085F0100085F010008A0
:1000C0000348854600F0B4FA00480047892C000830
:1000D00088480020084B19680868203080F3098898
:1000E000022080F31488BFF36F8F3FBCAE4608BC7C
:1000F00004BC62B6184700001C000020EFF310801B
:1001000072B6704780F310887047EFF309800E4B8A
:100110001A6820381060F0C044464D4656465F4687
:10012000F0C008B572B603F0B7F862B60CBC11683F
:1001300008681030F0C8A046A946B246BB4680F316
:1001400009882038F0C818471C0000200448804760
:1001500004480047FEE7FEE7FEE7FEE7FEE7FEE7AE
:10016000F91D0008C100000830B50B46014600200B
:100170002022012409E00D46D5409D4205D31D46AD
:100180009540491B2546954040191546521E002DA5
:10019000F1DC30BDF0B51FB40646002082B0054644
:1001A0004024019100901BE0019922460F46304601
:1001B00000F067F8049A059B801A994110D3104605
:1001C0001946224600F04DF8361A8F410197224613
:1001D00001200021009F00F044F838184D410090A4
:1001E0002046641E0028DFDC019B00982946324629
:1001F00007B0F0BD03460B439B0703D009E008C9D5
:10020000121F08C0042AFAD203E00B780370401CC6
:10021000491C521EF9D27047D2B201E00270401C54
:10022000491EFBD270470022F6E710B513460A4676
:1002300004461946FFF7F0FF204610BD0321001DBC
:10024000401E037812021A43491EF9D51046704722
:10025000034603220870000A491C521EFAD51846AC
:10026000704710B5202A04DB0146203A9140002057
:1002700010BD914020239C1A0346E340194390404F
:1002800010BD10B5202A04DB0846203AD0400021DA
:1002900010BD0B46D340D0402024A21A9140084301
:1002A000194610BDF0B507460846584087B0C00F44
:1002B000049048000E46590040084908BC1A88417D
:1002C00005D2384631461E4617460B4602465800B0
:1002D000400810434CD0300D039040055900400DAC
:1002E000490D0590401A0290402872DA1803012146
:1002F000000B09050843019004980092002805D0DE
:1003000001995242002088410092019002984021B8
:100310000A1A01990098FFF7A4FF05460C466B46A0
:1003200007CB00F097F9C0197141039A0E0D002315
:10033000D71756401A467A40164344D0049A002AEA
:100340002DD0029A012A039A15DC1205C01A914198
:1003500001263605001C7141D20F059ED20700937D
:10036000019202962A46234600F094F907B0F0BDA8
:1003700038463146FAE71605224A0F46B218C01A27
:10038000B74101210905001C4F4100187F4111466A
:1003900018187941E20F10436D19644113E0E20728
:1003A0006D0815436408C2071443039A0126120519
:1003B000C01A91413605001C7141CE0740083043F8
:1003C0004908C01851412A46234600F056F9CDE7A6
:1003D000FFE7049801224000C117121A00238B4145
:1003E00004983146C417381AA141EEE730B401240D
:1003F000E407634030BC55E730B40124E4076140B2
:1004000030BC4FE70000E0FFF0B51FB488B00B9997
:100410000998002448400999C00F490049080991EA
:10042000C0070B990090490049080B910999089859
:10043000A64608431CD00B990A98084318D009987F
:1004400001244000420D4800410D09982405000395
:10045000000B204309900B980003000B20430B90E6
:1004600050181C494018002201901446104605E01F
:10047000002001460DB0F0BD032801DA034600E07C
:1004800003239C46C11A0AAE0AE05F0008ADED5B8B
:100490004F00F75B7D430027AA187C41491C5B1E77
:1004A0006145F2DD410004AB5A522104120C0A43AB
:1004B000240C401C0828DFDB01980290009970464C
:1004C00001910090059B049A0799069800F0E2F8C4
:1004D000D0E700000DFCFFFFF0B50C465C4085B096
:1004E000E40FE40703944C00002664085900944686
:1004F000490802460296224321D062460A431ED092
:100500006200570D4A000E032303550D01240246D5
:100510002C492405781B1B0B360B4018234326431C
:10052000614600901C46501AB44103D30098401C09
:10053000009002E0921800985B41002803DA002046
:10054000014605B0F0BD0020012109050746864699
:1005500011E064461D46141BB54106D36546521B87
:10056000B341744607430C43A646CD0740084908EB
:10057000284392185B4105460D43EAD110461843C3
:1005800013D06046194650407140084306D060467B
:10059000101AB34106D20122002306E000220123F3
:1005A000DB0702E00122D243531000987446010594
:1005B000381C6141029C039D0019694100F05DF8FF
:1005C000BFE70000FD0300004A0009030123090BF7
:1005D0001B0519430A4B10B5520D9A4202DA00204E
:1005E000014610BD064B34339A4203DC9A1AFFF7DA
:1005F00048FE10BD034BD218FFF733FE10BD0000BC
:10060000FF030000CDFBFFFF10B5002904DB012430
:10061000E40740428C412146002B04DB1C460123A9
:10062000DB075242A341994200D1904210BD000025
:10063000064C0125064E05E0E36807CC2B430C3C35
:1006400098471034B442F7D3FFF73EFDDC3600087C
:10065000FC36000810B5202A06DBCB170846203AE6
:100660001041C1170B4306E00B461341D040202434
:10067000A21A91400843194610BD10B5002B08DAA4
:100680000024401C614192185B411A4301D140088B
:10069000400010BDF0B51FB482B005460C0003D079
:1006A000084601F055FE02E001F052FE20300246FD
:1006B000009021462846FFF7D4FD049B059A044686
:1006C0000F4618431143084314D0184610431BD05B
:1006D000009840210A1A18460599FFF7D2FD0546F1
:1006E0000E46009A05990498FFF7BBFD084305D014
:1006F000012004E02046394607B0F0BD0020C117B4
:1007000005430E432C43374300990E986305401A66
:100710007905E40A00220C43FD0A0A3002D50020C4
:100720000146E9E70105101969410C9C0D9D00196E
:100730006941FFF7A2FFDFE7704770B5002401466B
:1007400020314A79022A03D00421C163012418E030
:10075000026813680E25AB431360026813685B08D8
:100760005B001360436C1C221340012215469D4020
:10077000036C5D604A7100220A71816B002900D010
:100780008847204670BD0000F8B500230124A7E08B
:1007900027469F403A4070D04D68022D01D0122D5F
:1007A00014D1DD08AD002D1800952D6A5E07AC460A
:1007B000F50E0F26AE46AE406546B543AC460E6913
:1007C0007546AE4065462E43009D2E624D68012D54
:1007D00005D0022D03D0112D01D0122D16D1856820
:1007E0000326AC465D00AE46AE406546B543AC461A
:1007F000CE687546AE4065462E43866046680D79E4
:10080000BE43ED06ED0F9D403543456006685F0031
:100810000325BD40AE46AE430D79B446AE07B60FD4
:10082000BE4065462E430660C6687546AE438D6879
:10083000BD403543C5604D68ED0050D52B4D6E6B06
:1008400026436E639E082A4DB6007519AC46AD6806
:100850009E07360F0F27B740BD4305273F07B84215
:1008600001D100271AE0234FB84201D1012715E03A
:10087000214FB84202D1022710E030E01F4FB842AA
:1008800001D103270AE01E4FB84201D1042705E039
:100890001C4FB84201D1052700E00627B7402F437F
:1008A0006546AF60184D2E684F689643FF0300D52C
:1008B00016432E606E684F689643BF0300D51643FB
:1008C0006E60AE684F689643FF0200D51643AE6077
:1008D000EE684F689643BF0200D51643EE605B1C7E
:1008E0000A681546DD4000D052E7F8BD001002400E
:1008F000000001400004005000080050000C0050AF
:1009000000100050001C0050000401400148006825
:10091000704700001400002002480168491C016073
:10092000704700001400002010B50848002401683A
:10093000402211430160032000F00AF8002801D092
:10094000012401E000F01CF8204610BD0020024008
:1009500070B5054609487D210024C9000068FFF7ED
:1009600003FC00F0B9FE002801D0012404E00022BD
:100970002946501E00F020F8204670BD18000020C7
:1009800010B50748416B012211434163816B02049A
:100990001143816303210022481F00F00DF810BDB0
:1009A00000100240C106C90E0120884001490860BC
:1009B0007047000000E100E010B501F0E7F810BD5D
:1009C00002480168821511430160704700700040C1
:1009D000F8B504460068664D810601D400057DD552
:1009E000634E0027403EB06BC00004D4B06B3104AE
:1009F0000843B06301275F480168C90511D4016845
:100A0000821511430160FFF781FF009005E0FFF7B9
:100A10007DFF0099401A642844D856480068C005F4
:100A2000F5D5316803200005626801401040884216
:100A300005D10323A0681B051840884208D0900305
:100A4000800F032804D13068800301D50120F8BD50
:100A5000286903210904084029D00A40824202D0B3
:100A60002278920606D4A2680A4082421FD02088CB
:100A700000051CD528692A6988430121C9040A4355
:100A80002A612A698A432A612861C0050FD5FFF7C8
:100A90003DFF009008E0FFF739FF0099411A364802
:100AA000814201D90320F8BD28698005F3D561682A
:100AB0008803800F032805D1326800058243014076
:100AC0000A43326028690322616812041140084316
:100AD0002861002F06D0B06B012100E002E0090779
:100AE0008843B0632078C00705D0E868E1688008D3
:100AF00080000843E8602078800705D5E8680C216D
:100B0000884321690843E8602078400706D5E868F3
:100B100003218902884361690843E860207800075F
:100B200006D5E868032109038843A1690843E86002
:100B30002088C00506D5E868032109048843E169D7
:100B40000843E8602078400606D5E8680121890658
:100B50008843616A0843E8602078000606D5E868A3
:100B6000032189048843216A0843E8600020F8BD16
:100B7000401002400070004088130000F8B50E4697
:100B800005007DD053480068C007C00FB0420AD2AC
:100B90005048016849084900314301600068C007B6
:100BA000C00FB04271D128784B4C800705D5E06862
:100BB000F0218843A9680843E0602878C00752D034
:100BC0006868022817D0032818D02168012818D097
:100BD0008905002959DAE168890889000143E16043
:100BE000FFF794FE69680746022912D003291CD03A
:100BF000012926D033E021688903EAE721688901C9
:100C0000E7E74907E5E7FFF781FEC11B334881426B
:100C100023D8E0680007800F0228F4D123E0FFF713
:100C200075FEC11B2D48814217D8E0680007800F70
:100C30000328F4D117E0FFF769FEC11B2748814262
:100C40000BD8E0680007800F0128F4D10BE0FFF714
:100C50005DFEC11B2148814201D90320F8BDE06837
:100C60000007800FF3D11B480168C907C90FB142C3
:100C70000DD901684908490031430160006800E06E
:100C800003E0C007C00FB04201D00120F8BD2878B2
:100C9000400706D5E068072109028843E968084350
:100CA000E0602878000707D5E0680721C90288437B
:100CB0002969C9000843E06000F036F8E168084A95
:100CC0000906090F515CC840064908600320FFF778
:100CD0003FFEF8BD002002400010024088130000D3
:100CE000AC36000818000020044805490068C968AF
:100CF000044A4905490F515CC8407047180000205C
:100D000000100240C5360008044805490068C9685B
:100D1000044A8904490F515CC840704718000020FC
:100D200000100240C536000810B5184AD1680C20E2
:100D3000084004280BD0082810D00C2810D0506888
:100D40000004410F0120C003491C884010BD1068F9
:100D5000C00601D50E4810BD0E4810BD0E4810BD8E
:100D600088020E4B000F185C0902D368890F491CDA
:100D7000DB0301D5084A05E01268D20601D5044A12
:100D800000E0044A5043FFF7EFF910BD00100240A5
:100D900000093D000024F40000127A00BC3600086F
:100DA000FEB505007ED0F94CE7680C20E6680740E8
:100DB0000120000406402878C00747D0082F05D03E
:100DC0000C2F0AD101200004864206D1206880033E
:100DD0003CD568680028E5D038E001206968000447
:100DE000814203D121680143216011E005230122E2
:100DF0001B0492049942216802D111432160F1E75A
:100E00008143216021680140009120689043206067
:100E1000686800280DD0FFF779FD009005E0FFF726
:100E200075FD0099401A64287ED820688003F6D5A5
:100E30000CE0FFF76BFD009005E0FFF767FD009900
:100E4000401A6428F0D820688003F6D428788007F8
:100E50005CD5E868810604D5226820210A43226017
:100E600088430923042F0DD00C2F01D1002E09D067
:100E700000283BD02168994301432160FFF746FDDC
:100E8000064627E02168490701D500288AD0616815
:100E90001F22120291432A691202114361602168E4
:100EA000994300E0C3E101432160FFF73DFFE168A2
:100EB00009060A0FB649895CC840B6490860032094
:100EC000FFF746FD002873D120E0FFF71FFD801BD0
:100ED0000228A9D820684007F7D560681F210902B9
:100EE000884329690902084360600FE020684008D0
:100EF00040002060FFF70AFD064604E0FFF706FD0C
:100F0000801B022890D820684007F7D42878C006B4
:100F100060D5002F0DD0E86900284AD02068FF2155
:100F200001310843206000E0E8E0FFF7EFFC0646EF
:100F30002CE02068800502D5E8690028A6D060680A
:100F4000072149038843696A084360606068298C07
:100F50000002000A090608436060686A410B01202C
:100F6000C003491C8840E16809060A0F8849895C6A
:100F7000C840884908600320FFF7EAFC002817D121
:100F800028E0FFF7C3FC801B0228A2D82068800558
:100F9000F7D56068072149038843696A08436060A0
:100FA0006068298C0002000A09060843606011E0AD
:100FB00023E12168FF20013081432160FFF7A6FC77
:100FC000064604E0FFF7A2FC801B02289AD820689E
:100FD0008005F7D42878704E000724D5686900286A
:100FE000306910D0012108433061FFF78FFC009079
:100FF00005E0FFF78BFC0099401A02287ED8306983
:101000008007F6D50FE0400840003061FFF77EFC16
:10101000009005E0FFF77AFC0099401A02286DD88D
:1010200030698007F6D42878400764D50020029004
:10103000A06BC00006D4A06B012109070843A06380
:101040000120029055480168C90511D40168821534
:1010500011430160FFF75AFC009005E0FFF756FCD2
:101060000099401A642849D84C480068C005F5D555
:10107000FF20AA680130824203D131690143316106
:1010800011E001218902002A07D005231B029A42A0
:1010900003D132690A433261EFE732698243326138
:1010A000306988433061A86800280ED0FFF72EFC15
:1010B000009006E0FFF72AFC0099411A3848814267
:1010C0001CD830698005F5D50DE0FFF71FFC0090B6
:1010D00006E0FFF71BFC0099411A314881420DD808
:1010E00030698005F5D40298002804D0A06B012156
:1010F00009078843A0632878800600E07CE02ED5AD
:101100002848A9694314002916D0A26801210A437E
:10111000A260626B0A436263016A19430162FFF7CE
:10112000F5FB064604E0FFF7F1FB801B022863D8BD
:10113000A0688007F7D512E0A16849084900A160BE
:10114000016A99430162FFF7E1FB064604E0FFF7FD
:10115000DDFB801B02284FD8A0688007F7D4A86A5F
:10116000002866D00C2F4DD00126360602282068B4
:1011700005D0B0432060FFF7C9FB05463EE0B04311
:101180002060FFF7C3FB074613E000000010024099
:10119000AC360008180000204010024000700040EB
:1011A0008813000000000140FFF7B0FBC01B0228BD
:1011B00022D820688001F7D4296BE86AE2680843E6
:1011C000696BFD231B049A4311430843E0602068C8
:1011D00030432060FFF79AFB054604E0FFF796FBDB
:1011E000401B022808D820688001F7D521E0FFF7CE
:1011F0008DFB401B022801D90320FEBD2068800121
:10120000F5D416E00128F8D0E06801210904EA6A63
:10121000014091420BD10F2189042A6B0140914278
:1012200005D1032189050840696B884201D001205E
:10123000FEBD0020FEBD0000F7B505460446203582
:10124000287882B0012814D001202870022068700C
:101250002168CA204862216853204862206880685B
:1012600000264005FF27002812DAFFF74FFB009009
:101270000AE0022005B0F0BDFFF748FB0099411AD3
:101280007D20C00081421CD82068C0684007F3D48C
:101290002068816801229202914381602068C168C0
:1012A00080221140204A8918C160FFF72FFB00906F
:1012B0000DE0FFF72BFB0099411A7D20C000814211
:1012C00005D920684762032068702E70D2E7206835
:1012D000C0684007EDD5216803984861206881689F
:1012E000C908C900816020688168049A114381603F
:1012F0000E480268012109050A43026082680A4318
:101300008260206881680122920311438160206815
:101310008168121111438160206847620120687062
:101320002E700020A6E700007FFBFFFF00040140B5
:101330007047000010B504460068C068400509D534
:101340002046FFF7F5FF2068C16880221140054A5A
:101350008918C1600120044900054861012020343A
:10136000607010BD7FFBFFFF0004014010B50068F6
:101370000B464068C021C94301400002000ECC0466
:10138000D870E40E5C708C06A40E0904490F9C70A2
:101390001970002A0AD100F01BFCD870587800F0B0
:1013A00017FC5870987800F013FC9870002010BD5E
:1013B00030B50B460168896A5960016809694904BA
:1013C000490C9960006804680F4821460140880272
:1013D0004D04800E18706D0E49065D70490E9970AF
:1013E0006102490E40242140D970002A0AD100F040
:1013F000EFFB1870587800F0EBFB5870987800F00D
:10140000E7FB9870002030BD7F7F7F00F8B50400B7
:1014100050D0254620356878002803D12870204612
:1014200000F052F8022068702168CA2048622168E2
:1014300053204862204600F0DFFBFF2604270028E7
:10144000206802D046626F7034E081681D4A114006
:101450008160216888686268A369104322691A4321
:10146000104388602168E06808612068016922896A
:101470001204114301612068C16880229143C16058
:101480002068C16C89088900C164E1696069014311
:101490002068C26C1143C1642068806880060BD448
:1014A000204600F0FFF8002806D0206846626F70E2
:1014B000002028700120F8BD206846620120687075
:1014C0000020F8BDBFFF8FFF10B5006808498842B3
:1014D0000DD10848016901229204114301610022E3
:1014E00003210220FFF768FA0220FFF75BFA10BD24
:1014F0000028004040100240F8B50546044620355B
:1015000028780B4601280FD001202870022068702F
:10151000002A0BD0D8789E780004064358780978C2
:1015200000024903084317E00220F8BD5878C106BD
:1015300003D5EF2108400A305870D87800F050FBEE
:101540000604587800F04CFB00020643987800F03F
:1015500047FB06431878400306432168CA204862C7
:10156000216853204862204600F046FB00270028EF
:1015700011D111480640206846602068C168802269
:101580009143C1602068806880060CD4204600F03A
:1015900089F8002807D02168FF204862042068707D
:1015A0002F700120F8BD2168FF204862012068707B
:1015B0002F700020F8BD00003FFFFF00F8B5064681
:1015C0000446203630780D46012822D001203070A4
:1015D00002207070206800278068002A1BD0400617
:1015E00000D4EF702978A878090408436978EA786C
:1015F000090212041143084300902168CA2048627E
:10160000216853204862204600F0F6FA002837D1BE
:1016100016E00220F8BD400600D4EF70287800F0F4
:10162000DFFA0304687800F0DBFA00020343A878CD
:1016300000F0D6FA0343E878000403430093DCE7A4
:1016400017490098084021680860206881680122D5
:101650009204914381602969E868084321688A6897
:10166000104388602068C16880229143C16020686F
:10167000806880060CD4204600F014F8002807D0BB
:101680002168FF2048620420707037700120F8BD87
:101690002168FF2048620120707037700020F8BD7B
:1016A0007F7F7F0070B504460068C168A022914327
:1016B000C160FFF72BF97D260546F60006E0FFF72F
:1016C00025F9401BB04201D9032070BD2068C068D5
:1016D0008006F4D5002070BD094910B5401E88422F
:1016E00001D9012010BD074C60610321081F00F0E3
:1016F0004DFA0020A06107202061002010BD0000ED
:10170000FFFFFF0000E000E070477047F8B5026897
:101710000446D0691168936805072D0F5BD0DD077B
:10172000ED0FFF2621360E402E4367D0C60706D0A8
:10173000CE0504D501261662E26F3243E2678707C1
:1017400002220426002F06DADF0704D027683A6257
:10175000E76F3743E767470706D5DB0704D0236801
:101760001E62E36F1343E367020709D520220A4094
:101770002A4305D0236808221A62E36F1343E36704
:10178000E26F002A2FD0800606D5880604D5216E88
:10179000002901D020468847E06F21688968490602
:1017A00001D4000724D5204600F0F0FB20688168B2
:1017B000490619D58168402291438160E06E002876
:1017C00012D020498163E06EFEF7B7FF00280AD0EF
:1017D000E06E816B06E0850610D58D060ED5216E74
:1017E0001CE020468847F8BD2046FFF78EFFF8BD75
:1017F0002046FFF78AFF0020E067F8BDC50208D544
:101800005B0206D50120000510622046FFF77CFF31
:10181000F8BD030605D50B0603D5616E0029E0D19E
:10182000F8BD4006FCD54806FAD51368204640218D
:101830008B431360202161670021616600F0F7F897
:10184000F8BD0000791F000810B5040003D0606FD8
:10185000002802D007E0012010BD002170200155B2
:10186000204600F027F824206067206801684908B6
:1018700049000160204600F099FB0128ECD0606A25
:10188000002802D0204600F0E1FA206841680922D1
:10189000D20291434160206881682A22914381608D
:1018A00020680168012211430160204600F034FBEA
:1018B00010BD0000F0B587B0044614216846FEF75D
:1018C000B2FC2249206888423DD12148816B012227
:1018D000120511438163C16A04242143C162C16AB4
:1018E00021400591C16A08252943C162C06A0226C8
:1018F00028400590101200276946C1C103200390BB
:10190000694604961348FEF73FFF03200390062024
:1019100004906A46D0C269460F48FEF735FF0022A0
:1019200003210E20FFF748F80E20FFF73BF80B4885
:101930000268136820210B4313600268116200687B
:101940008169A943816107B0F0BD000000500040EB
:101950000010024000080050000C0050181B00202E
:10196000FFB50446406F83B017460D4620285CD172
:10197000002D0AD0002F08D0A168C001814207D1F4
:101980002069002804D1E80702D0012007B0F0BD8B
:10199000204660300290007C012846D00298012148
:1019A00001740020E06721206067FEF7AFFF264644
:1019B00040360190378277820120A168000381427E
:1019C00002D12069002802D02F46002511E000270F
:1019D0000FE000228021204600F006FC002815D1EF
:1019E000002F15D02168387888627F1C708A401ECD
:1019F0007082708A019B002806980090E9D100222D
:101A00004021204600F0F0FB002808D00320BDE76D
:101A100028882168C005C00D8862AD1CE6E720203B
:101A20006067029900200874B0E70220AEE77047B3
:101A3000FEE7000010B588B00B490C48FEF7F3FB39
:101A4000012100224902042001F08CFC084C1C22D8
:101A5000206008496846FEF7CDFB0021684601F08A
:101A600035F9606008B010BD28180000F0020020B1
:101A7000000000209036000808B50F48C26A042113
:101A80000A43C262C26A0A400092C26A80210A43C3
:101A9000C262C26A0A400092C16A01221143C16255
:101AA000C16A11400091C26A08210A43C262C06A39
:101AB0000840009008BD00000010024010B586B03C
:101AC00014216846FEF7AFFB00241F491F48059408
:101AD00012C07F2101608460C4600461FF21446101
:101AE00041600838FFF792FC002801D0FEF724FE81
:101AF0000C20694608701E204870887003940022EC
:101B000012480494FFF75AFD002801D0FEF714FE96
:101B10000520694608754875012088751420C87528
:101B2000002205A90948FFF7E7FC002801D0FEF7CD
:101B300003FE042211460548FFF77EFB002801D072
:101B4000FEF7FAFD06B010BD00280040CC020020D0
:101B500010B50C480A490160E121090241600021E9
:101B60008160C16001618161C1610C2201624261D9
:101B70004162FFF769FE002801D0FEF7DDFD10BDD0
:101B800000500040181B0020704700008307FF2210
:101B9000DB0E9A408907090E994000280BDA0007EE
:101BA000000F0838830808489B001818C36993433E
:101BB0000B43C3617047830804489B001B181868D7
:101BC000904308431860704700ED00E000E400E037
:101BD00001090A2200075143000F4018C0B27047A4
:101BE0000022014602E00A39C9B2521C0A29FAD27F
:101BF0001007000E0843704770B504460068C168BE
:101C0000490613D40021C943C160FEF77FFE7D263B
:101C10000546F60006E0FEF779FE401BB04201D90A
:101C2000032070BD2068C0684006F4D5002070BD58
:101C300070B504468AB000200490142105A8FEF770
:101C4000F2FA002204A90F48FFF790FB002205A931
:101C50000C48FFF7ADFB6E46F27C2270737C63701C
:101C6000B07CA070317DE170757D2571B67D6671A7
:101C700003966E4623C604A1204600F055FB0AB029
:101C800070BD0000CC02002024544D3A3230253083
:101C900032642D253032642D2530326420253032D7
:101CA000643A253032643A253032640010B50D486C
:101CB00001680422114301600B49900448610B48FC
:101CC0000068C16880221140094A8918C160094929
:101CD0000120FEF7BDFA00F00FF80448FFF72AFBD9
:101CE00010BD00000070004000040140CC02002044
:101CF0007FFBFFFF0800002010B590B01048FEF7F2
:101D00009DFA00281AD040216846FEF78CFA0C494B
:101D10000020FEF79DFA0A4C201DFEF78FFA211DC8
:101D2000401CFEF795FA6846FFF782FF201DFEF77C
:101D300085FA01466A4603A000F0E6FA10B010BD2D
:101D4000080000200D0A576B7074696D65733D259E
:101D5000642C2025730D0A007047012000F0A9FFB4
:101D6000FBE710B5FEF7D8FD01F09CFB012801D080
:101D700001F0E6FA10BD000030B59DB0382168468C
:101D8000FEF751FA142118A8FEF74DFA28210EA8E3
:101D9000FEF749FA164801680324E402A143C2147D
:101DA00089180160FEF70CFE12480169A143016128
:101DB000052001252D040090281200240290019591
:101DC0000A946846FEF7ECFF0F2018900220199045
:101DD000A0201A901B9400211C9418A8FEF7CEFE98
:101DE00020200E900F950EA8FEF7F2FD1DB030BD1D
:101DF00000700040401002401048016882151143F5
:101E00000160C1680E4A1140C16001680D4A11406D
:101E100001608168490849008160016801229204DB
:101E200091430160C168FD2212049143C160002109
:101E300001610549C003886070470000001002403E
:101E40000C40FF88F6FFF6FE00ED00E010B5818C37
:101E5000C90707D001684A6801235B049A43836A73
:101E60001A434A60818C890707D501684A680123B3
:101E70001B049A43C36A1A434A60818C490707D5F9
:101E800001684A6801239B049A43036B1A434A6022
:101E9000818C090707D501684A680123DB039A434F
:101EA000436B1A434A60818CC90607D50268916862
:101EB00001231B039943836B19439160818C89062D
:101EC00007D501688A6801235B039A43C36B1A43F1
:101ED0008A60818C490612D503685A680121090578
:101EE000046C8A4322435A60026C8A4207D102681A
:101EF000516803235B059943436C19435160818CFE
:101F0000090607D501684A680123DB04806C9A43FF
:101F100002434A6010BD0000F8B500260446C667BB
:101F2000FEF7F4FC054620680068124F000709D54B
:101F300001212B46002249052046009700F054F964
:101F400000280DD12068006840070BD501212B46E1
:101F5000002289052046009700F046F9002801D0AC
:101F60000320F8BD20206067A0676034267400203D
:101F7000F8BD0000FFFFFF0110B5806A0022014696
:101F800040314A834A82FFF7C0FB10BD01680A68EE
:101F9000FF2321339A430A6001688A68520852007D
:101FA0008A6020218167002101667047F8B50446E8
:101FB0002669A268E76932436669102000253E431E
:101FC000236832437B491E687B4F3E4016431E60A8
:101FD0002268536803263603B343E66833435360ED
:101FE0002368A2698B4201D0266A32439E680B2780
:101FF0003F02BE4316439E60704E2368704AB34250
:102000000CD1D2689207920F06D0012A3ED0022A44
:102010003AD0032A26D124E0012023E0694EB342BE
:102020000AD1D2680C2632402CD0042A2ED0082A9D
:102030002AD00C2A16D114E0634EB34222D0634E4C
:10204000B3421FD08B420DD1D668032292021640B4
:1020500018D001229202B61A18D0B61A14D096429D
:1020600000D10820564A0126403A594FF6038B42C8
:1020700036D100280CD002280DD0042812D0082810
:102080001FD11CE00020EDE70220EBE70420E9E788
:10209000FEF72AFE08E01068C00601D5384605E0C4
:1020A0004C4803E0FEF740FE002873D06268510000
:1020B0005118814205D81103814202D303E0304612
:1020C000F4E7012566E0010E0602500800233018EF
:1020D0005941FEF75FF803210902411A3E4A55E0D3
:1020E000E169B14232D1030000F049F909070A0D54
:1020F00006250606062B0600E3E7FEF7F5FD1CE0C5
:10210000FEF702FE19E010686168C00602D54808B3
:10211000324A01E0324A48088018FEF725F880B2BA
:102120000146304A10399142CBD8511C014000077A
:10213000400F08432CE0FEF7F7FD616840004A08B5
:10214000EAE76168012248081204E5E7030000F0AD
:1021500016F909070A0D06260606062C0600B0E742
:10216000FEF7C2FD1DE0FEF7CFFD1AE010686168C2
:10217000C00602D54808C01902E016484A081018DF
:10218000FDF7F2FF80B20146164A1039914298D805
:102190002168C8600020206660662846F8BDFEF70A
:1021A000C3FD61684A088018EAE761684808801939
:1021B000E6E7000000480040F369FFEF0038014007
:1021C0004010024000440040004C004000500040DD
:1021D00000093D000024F400FFFC0F0000127A000B
:1021E0000048E801EFFF0000FFB581B017460E463A
:1021F00004460A9D09E0681C07D0FEF787FB049996
:10220000401AA8420CD8002D0AD02068C169304677
:10221000884318D00020B842EDD0002005B0F0BDB2
:1022200020680168FF22A132914301602068816823
:1022300049084900816020206067A0670020603461
:1022400020740320EAE70120E5E70000F8B52A48FA
:102250000168CA690A688A68284BDA69120701D5D9
:1022600008221A62CA69D24394061022002C2BDB82
:1022700020240C62596ACDB221490D7021498B7915
:102280004C791E022643CB1D0124491C002E15D07B
:1022900006683768174337604E790F7936023E4338
:1022A000F5544B790D791B022B435B1C0B711B0AF8
:1022B0004B71491E0B79002B05D005E0F5540C71CC
:1022C000230A4B7100E00C710168CB69DB43DB062C
:1022D0000DD40A62006801689143016009480179E0
:1022E000012904D10178491C0170022101710248C1
:1022F000FFF70CFAF8BD0000181B0020005000404A
:1023000010000020F00200200FB410B503A9044B08
:10231000044A029800F00AF910BC08BC04B018473F
:10232000712C0008740000200FB410B504A9074BED
:1023300002AA039800F0FAF8044602A9002000F06F
:1023400091FC204610BC08BC04B01847652C00085E
:102350002021020C01D010211046020A01D01046A3
:102360000839020901D01046091F820801D0104621
:10237000891E420801D0881E7047081A704730B481
:102380007446641E2578641CAB4200D21D46635D12
:102390005B00E31830BC184702E008C8121F08C1F0
:1023A000002AFAD170477047002001E001C1121FD6
:1023B000002AFBD170470000F0B51FB486B0099821
:1023C000089A030D0021024314D05148514A1818AD
:1023D000504305141198012810981AD0281A401C4F
:1023E00000264D4F4D49009601910490002812DAC5
:1023F000444211E01198012449A3012801D1109809
:10240000C1430698119A84600360C26041600BB0BA
:10241000F0BD4042E4E70446210500203F4A001C8D
:1024200051410391029012E0E00707D032463B464B
:1024300001990098FDF7E8FF0191009032463B4674
:1024400010461946FDF7E0FF06460F466410002CC3
:10245000EAD10498039B0028029A0999089806DAA1
:10246000FDF7D2FF019B009AFDF7CEFF05E0FEF7D6
:1024700033F8019B009AFEF72FF804460E4600221F
:10248000284BFEF7C1F803D80020C043014607E0FF
:102490000022254B20463146FDF704FFFEF794F855
:1024A000102409E0002C0ADB0A220023FDF772FE4B
:1024B000079B30321A55641E02460A43F2D111229C
:1024C000641C079B121B1C19119B012B03D00123B9
:1024D00008430ED10AE0084304D0112010900020D8
:1024E000119077E71098151A6D1E0BE01098824234
:1024F00002DD00236D1C03E0824201DA00236D1E21
:10250000002BEED0069811998260C16030C07EE742
:1025100001FCFFFF104D0000000014400000F03FE0
:10252000300000000000F0430000E03FFFB597B02E
:102530000646002518E2252877D100242746FD49C4
:10254000049400E00443761C32780120203A904045
:102550000842F7D130782A280ED00222307801467E
:102560003039092916D804990A23594330394018BB
:102570001443761C0490F1E7189802C8049118904F
:10258000002904DA01204003044348420490022059
:102590000443761C30782E2814D10420044370782C
:1025A000761C2A2809D11898761C80C8189009E052
:1025B0000A214F43303FC719761C30780146303925
:1025C0000929F5D930786C2810D006DC4C281AD0AF
:1025D00068280ED06A2817D104E0742813D07A280E
:1025E00012D110E00120400504430CE0012109054F
:1025F00001E0032109050C437178814203D10120D8
:1026000000052418761C761C3078119066280BD0B3
:1026100013DC58287DD009DC00287BD04528F6D073
:102620004628F4D047281AD1A5E118E0632835D010
:10263000642870D0652812D19DE170286CD008DC28
:102640006728F1D069287BD06E280DD06F2806D17D
:10265000BAE073282ED0752871D0782859D01A9AEC
:10266000199990476D1C7EE16002400F022809D045
:1026700003280DD00428189801680DD00D60001DA6
:10268000189070E11898EA1701680D604A60F6E743
:10269000189801680D80F2E70D70F0E718986A4607
:1026A00001781172001D18900020507202A800904D
:1026B000012005E0189802C8189000200091C0433E
:1026C00061070DD5002101E00199491C0191B94232
:1026D00012DA8142F8DB009A515C0029F4D10BE058
:1026E000002101E00199491C01918142FADB019A24
:1026F0000099895C0029F5D1019904981A9B471A21
:1027000021463846199A00F097FA01994019451860
:102710000BE04FE02CE113E04EE0009800990078C8
:10272000491C00911A9A199990470198401E0190EE
:10273000401CF2D1214638461A9B199A10E137E025
:102740000A200021009001916002410F022907D068
:10275000189A01CA1892C2179446032908D00AE0B1
:102760001898C01DC108C90005C91891944607E012
:1027700000B2C2179446042902D140B2C1178C4658
:1027800000226146944506DA0A4600214042914102
:102790008C462D2102E0210504D52B216A461173B8
:1027A000012103E0E10701D02021F7E7029155E084
:1027B0000A200AE0102008E01020009000210420E8
:1027C00004430191082703E00820002101910090B3
:1027D0006002410F022907D0189A01CA18920022FC
:1027E0009446032908D008E01898C01DC108C90004
:1027F00005C91891944603E080B2042900D1C0B203
:1028000000210291210729D51199702906D0009A3B
:102810001021019B4A401A4305D00EE040216A4630
:102820001173012108E06146014306D030216A4658
:1028300011731199517302210291009A0821019B91
:102840004A401A430AD16146014301D1610705D5C7
:1028500030216A46117301217F1E02911199582976
:1028600004D035A10E910DA90D910DE037A1F9E726
:102870006146019B009AFDF78DFC0E9B8C469B5C8C
:102880000D9A521E0D92137061460143F0D10D98BE
:1028900005A9081A20300190600703D50120000423
:1028A000844300E001270198874201DD381A00E0E7
:1028B0000020019900904118029809180498401AC4
:1028C0000490E00306D421461A9B199A049800F05C
:1028D000B3F94519002706E003A81A9AC05D1999B3
:1028E00090476D1C7F1C02988742F5DBE0030CD5F6
:1028F00021461A9B199A049800F09EF9451904E0A4
:102900001A9A3020199990476D1C0099481E009022
:102910000029F5DC08E00D980D990078491C0D910F
:102920001A9A199990476D1C0199481E0190002927
:10293000F1DC63E1092801003031323334353637B8
:1029400038396162636465660000000030313233FB
:10295000343536373839414243444546000000009B
:1029600000F05AF94519761C3078002800D0E2E5CD
:1029700028461BB0F0BD600700D406271898C01D7C
:10298000C108C90048680A680831C30FDB071891FD
:10299000190001D09CA108E0210501D59BA104E00C
:1029A000E10701D09AA100E09AA1430011985B08C9
:1029B000109165280CD006DC452809D046281DD08A
:1029C000472841D141E0662818D067283CD13CE037
:1029D0000021112F01DB112000E0781C01910090F3
:1029E00008A911A8FFF7E8FC139905910021119A95
:1029F00015927F1C12980197009150E00120C007AA
:102A000003900120019008A9009711A8FFF7D4FCBA
:102A1000139A149905920022119B00921298159313
:102A2000059A0192002901D0104602E0791C401855
:102A30000190381A01D5019804E04042401E0090F0
:102A4000781C0190C01B029043E0012F00DA01279F
:102A50000021112F01DD112000E038460191009086
:102A600008A911A8FFF7A8FC13990591119A002154
:102A7000129815920091019721070CD40599B9423B
:102A800001DB019900E00191012904DD159A491E3D
:102A9000515C302906D0B84201DA011D05DA012166
:102AA000029115E00199491EEDE7002805DC009927
:102AB000411800910199091A03E0019A411C9142C1
:102AC00000DD01910099401A401C02900120C007CE
:102AD0000390200706D402990198814202DB00206E
:102AE000C043029000206946C87707AF01210398D0
:102AF0000337C907884224D0022011902B2012905E
:102B0000039800280CDA404203902D20129007E031
:102B10000A210398FDF728FB30317F1E039039709E
:102B20001199481E11900029F2DC03980028EFD17A
:102B3000791E129808703078202108404530BF1E59
:102B4000387006A8C01BC01D03901098007800289C
:102B500000D00120019941180298C0170918039864
:102B600009180498401A401E0490E00306D4214638
:102B70001A9B199A049800F05FF84519109800788C
:102B8000002803D01A9A199990476D1CE00324D5A8
:102B900021461A9B199A049800F04EF845191CE03A
:102BA0000098002807DB00990598884203DD1598F6
:102BB000405C199901E0199930201A9A90470098C1
:102BC0006D1C401C00900298401E0290002804D109
:102BD0001A9A2E20199990476D1C0199481E019050
:102BE0000029DDDC05E038781A9A7F1C1999904796
:102BF0006D1C0399481E03900029F4DC21461A9BA2
:102C0000199A0498ACE600002D0000002B0000008B
:102C10002000000000000000F8B5044600251E4614
:102C20001746880404D405E039462020B0476D1CBF
:102C3000641EF9D52846F8BDFFB50446002581B0CD
:102C40001E46C80301D5302700E02027880404D59C
:102C500005E038460399B0476D1C641EF9D5284637
:102C600005B0F0BD0A68531C0B601070704700007F
:102C700013B57D23DB00012269460248FEF770FE92
:102C800000981CBD181B0020FDF74EFEFFF774F8DE
:102C9000FEF7F2FEFEF712FFFEF75AFFFEF7CAFE3E
:102CA00000F00FF8FEE701460020842900D0C81C80
:102CB000704710B5002800D1012000F0A1FA0020D3
:102CC00010BD10B500F0B4FA002010BD7FB50D4660
:102CD000044641690820205E002911D0A16900291D
:102CE0000ED0FFF7E0FF6B46A269616907C32B4670
:102CF00022692168606800F0B2FB039004B070BDE7
:102D0000FFF7D1FF03A901910090208A2B4682B2E0
:102D10002168606800F07AFB012801D00020EDE70F
:102D20000398EBE7F8B5134C0F4666690546206833
:102D3000001D00F0CDF9681C07D1002F05D02168D7
:102D40000D48091D00F008FAF8BD206875194560A6
:102D50002168B54204D2A068091D00F0E5F9F8BD6C
:102D60006068091D00F0E0F9206B8542F7D2256309
:102D7000F8BD00001C000020741C0020F8B50546BA
:102D800000F0F6F9294C2069401C20612068284F8A
:102D9000002803D0E069002827D02CE025602069B6
:102DA000012828D1002614207043C01900F0AEF984
:102DB000761C072EF7D31E488C3000F0A7F91C486C
:102DC000A03000F0A3F91A48B43000F09FF9184879
:102DD000C83000F09BF91648DC3000F097F9144831
:102DE0008C3060601430A06005E02068E96AC06A39
:102DF000884200D82560E06A401CE062E86AA16968
:102E0000884200D9A06114214843C019291D00F04F
:102E1000A3F900F0B9F9E069002806D02068E96A52
:102E2000C06A884201D200F0DFF9F8BD1C00002022
:102E3000981B002010B504464030407C002805D087
:102E4000012806D0022807D072B6FEE7206B00F0FA
:102E5000A9F9204600F0A6F910BD000005210E4892
:102E6000C902420705D0C01DC0080B4AC000821A23
:102E7000891A0A4A0023411809C20839C908C90039
:102E8000183A11604B600B600B1A0AC09360012066
:102E9000C0075360D0607047881C00206800002085
:102EA0000F4E104C3746C83F11E000F061F9F06852
:102EB000C568281D00F00CF92069401E2061E068FB
:102EC000401EE06000F060F92846FFF7B3FFE068BD
:102ED0000028EAD138680128F9D900F085F9F6E729
:102EE000601C00201C00002010B503460298002939
:102EF00006D00260C3630164012100F051FA10BDE5
:102F00000060F7E7FFB581B00C9C9000236B001FB9
:102F10001818C6080A9DF600700701D072B6FEE7C1
:102F200023180A5C20331A750A5C002A02D0401C60
:102F30001028F5D32046403000270090C770072D99
:102F400000D30625E562A764201D656400F0E9F85A
:102F50002046183000F0E5F824610720401B646229
:102F6000A061E764009807743046049A019900F064
:102F70009FF820600B98002800D0046005B0F0BDD9
:102F800030B5114900E011460A688242FBD34B6814
:102F90005C18844203D140681818486008464368AA
:102FA0001C18944209D1084C103C2468A24209D054
:102FB00052689A1842600A6812680260814200D022
:102FC000086030BD0460F9E76800002006484168E9
:102FD0000968002905D04168C968C9684968016362
:102FE00070470021C943FAE71C000020034800682D
:102FF000401C72B600D0FEE7FEE700007000002023
:10300000F8B50546002700F03FF9284E3068002843
:1030100001D1FFF723FFF06805423FD1002D3DD0DD
:103020000835680708D06807400F0821081A4519B5
:10303000680701D072B6FEE7002D2FD07068854278
:103040002CD81A48103001460C6801E020460C4686
:103050006168A94202D221680029F7D131688C4207
:103060001CD007682168016060680837411B10297F
:1030700008D96019420701D072B6FEE74160656069
:10308000FFF77EFF61687068401A7060B268904216
:1030900000D2B060F0680143002003C400F0A2FA3F
:1030A000780701D072B6FEE73846F8BD5800002018
:1030B00010B50124031F24061C601B1F1960191F73
:1030C000024B0B60143940380A6010BDED2F000828
:1030D0004368826801699A60836842685A604A68F6
:1030E000824201D182684A60002202610868401E63
:1030F0000860086870470000034B036018465430AE
:103100000860802010607047780000200146083178
:1031100000224160D243C1608260016100210160F0
:10312000704700210161704730B50B685A1C02D00E
:103130000246083202E0026904E02246546825682B
:103140009D42FAD953684B6099608A60516008616A
:103150000168491C016030BD42684A6093688B6019
:1031600093685960916008610168491C016070476B
:1031700072B604480168491C0160BFF34F8FBFF36A
:103180006F8F70477000002005490868002804D040
:10319000401E086000D162B6704772B6FEE70000BC
:1031A0007000002070B500281AD004460D4D083C70
:1031B0006068E968084201D172B6FEE72268002A19
:1031C00001D072B6FEE78843606000F05DF8606889
:1031D0006968401868602046FFF7D2FE00F002FAE6
:1031E00070BD00005800002001200449000748601D
:1031F000BFF34F8FBFF36F8F7047000000ED00E00B
:1032000010B502000FD00948806B002801D072B6BB
:10321000FEE700F039F800211046FFF783FD00F0CB
:10322000E1F9002801D1FFF7DFFF10BD1C000020ED
:1032300010B586B00024039405AA04A903A8049439
:10324000FFF75AFF0499039800940191029000231C
:1032500009A10B48059A00F002F90A4900284863C1
:1032600008D072B60020C04308630120C8614C61D9
:1032700000F03EF806B010BD49444C450000000087
:10328000A12E00081C0000200248816B491C8163AC
:10329000704700001C00002010B51348816B002906
:1032A00002D00121416210BD0021416281690F4AB3
:1032B00002E0002915D0491E14234B43D358002B9C
:1032C000F7D014234B439A18536814465B680834AC
:1032D0005360A34201D15B685360DA680260816188
:1032E00010BD72B6FEE700001C000020981B0020F5
:1032F00070B50F48016AFF22120411430162016A8E
:103300001202114301620B4C00252561A5610A4898
:103310007D21C9000068FCF727FF401E606107207F
:10332000206106480560FCF7D5FE002070BD000056
:1033300000ED00E000E000E0180000207000002038
:1033400010B5FCF7DBFE044600F0BCF8002803D003
:1033500001200349000748602046FCF7D3FE10BD5A
:1033600000ED00E0F8B517460E46050014D0002E1B
:1033700014D070434830FFF743FE04000AD0002108
:1033800046200155224648323B46314628460094A5
:10339000FFF7AAFD2046F8BD72B6FEE70020E9E778
:1033A00070B50D46040025D0FFF7E2FE216CE06BFE
:1033B00048432168411861600021A1632168A16030
:1033C000E06B216C401E484321684118E1600021F8
:1033D000C94320464030017141713038002D0BD077
:1033E000FFF794FE20462430FFF790FEFFF7CCFE57
:1033F000012070BD72B6FEE721690029F6D000F009
:10340000BFF80028F2D0FFF7EFFEEFE7FFB585B079
:10341000164690000F9FFFF7F3FD05001CD05420C7
:10342000FFF7EEFD040014D000205121256308555C
:103430000E9900910390019702943246089B0699D9
:103440000598FFF75FFD2046FFF798FC012009B0C3
:10345000F0BD2846FFF7A6FE0020C043F7E7F0B511
:1034600085B007460B9D0C9C0A98002D15D0002CAA
:1034700015D054262563022551263555002504AE66
:1034800000900196039502943846FFF73BFD2046D5
:10349000FFF774FC049805B0F0BD72B6FEE772B693
:1034A000FEE700000648C169002904D0806B0028AF
:1034B00003D00020704701207047022070470000B1
:1034C0001C000020F8B52C4C0027A06B002808D069
:1034D000206A401C2062606A002800D0012738461C
:1034E000F8BD6669761C66610ED1606800680028C8
:1034F00001D072B6FEE76068A1686160A060A06A52
:10350000401CA062FFF762FD206B86420AD3606810
:103510000068002810D06068C068C5686868864286
:103520000DD2206320681421C06A4843134908580B
:103530000128D0D90127CEE70020C043F1E7281D9C
:10354000FFF7C6FDA86A002803D028461830FFF709
:10355000BFFDE86AA169884200D9A06114214843EF
:1035600006494018291DFFF7F7FDE86A2168C96A76
:103570008842CCD30127CAE71C000020981B0020FA
:1035800070B5C068C468002C0BD0204618300646C1
:10359000FFF79EFD114DA86B002804D0314610485E
:1035A0000FE072B6FEE7201DFFF792FDE06AA96901
:1035B000884200D9A861142148430949B439401808
:1035C000211DFFF7C9FDE06A2968C96A884202D94E
:1035D0000120686270BD002070BD00001C0000204A
:1035E0004C1C0020F8B5284C0025A06B2E46002866
:1035F00008D0FFF7BDFDA06B401EA063A06B0028A4
:1036000002D03DE072B6FEE72169204F00291DD1AE
:1036100036E0F868C56828461830FFF759FD281DC0
:10362000FFF756FDE86AA169884200D9A06114211C
:1036300048431649B4394018291DFFF78DFDE86A43
:103640002168C96A884201D3012060623868002875
:10365000DFD1002D01D0FFF7B9FC256A002D09D07C
:103660000127FFF72FFF002800D067626D1EF8D1F9
:1036700000202062606A002802D00126FFF7B4FD16
:10368000FFF782FD3046F8BD1C0000204C1C0020D6
:10369000D03600085B1D000800000000000000009C
:1036A000800000000000000000000000000000009A
:1036B00000000000010203040607080903040608CD
:1036C0000C1018203000000000010203040000006C
:1036D00064656661756C745461736B00FC36000838
:1036E00000000020780000009823000874370008CC
:1036F0007800002010480000A82300080000000007
:1037000000000000000000000000000000000000B9
:103710000000000000002000000000000000000089
:103720000000000000000000000000000000000099
:103730000000000000000000000000000000000089
:103740000000000000000000000000000000000079
:103750000000000000000000000000000000000069
:10376000000000000000000000000000AAAAAAAAB1
:043770000000000055
:04000005080000C12E
:00000001FF
